:1000000000000220F1080000210400002D0400007F
:100010003904000045040000510400000000000005
:100020000000000000000000000000005D0400006F
:100030006904000000000000750400008104000055
:100040008D04000099040000A5040000B104000024
:10005000BD040000C9040000D5040000E104000054
:10006000ED040000F9040000050500001105000082
:100070001D050000290500003505000041050000B0
:100080004D050000590500006505000071050000E0
:100090007D0500008905000095050000A105000010
:1000A000AD050000B9050000C5050000D105000040
:1000B000DD050000E9050000F5050000010600006F
:1000C0000D0600001906000025060000310600009C
:1000D0003D060000490600005506000061060000CC
:1000E0006D060000790600008506000091060000FC
:1000F0009D060000A9060000B5060000C10600002C
:10010000CD060000D9060000E5060000F10600005B
:10011000FD06000009070000150700002107000088
:100120002D070000390700004507000051070000B7
:100130005D070000690700007507000081070000E7
:100140008D07000099070000A5070000B107000017
:10015000BD070000C9070000D5070000E107000047
:10016000ED070000F9070000050800001108000075
:100170001D080000290800003508000041080000A3
:100180004D0800000F2A30B404460D4636D941EA26
:10019000000313F0030F32D18C4603461446DCF8FB
:1001A0000050103C1D60DCF804505D60DCF8085025
:1001B0009D60DCF80C500CF1100CDD6010330F2C3E
:1001C000EDD8103A22F00F0502F00F021035441955
:1001D0004D19032A12D9002355F803C044F803C06F
:1001E0000433C3EB020CBCF1030FF5D8043A22F040
:1001F000030302F003020433E418ED183AB10023BC
:1002000015F803C004F803C001339342F8D130BCA1
:10021000704700BF10F0030F844630B40ED0002AA0
:1002200044D0013ACCB2034602E0002A3ED0013A63
:1002300003F8014B13F0030F9C46F6D1032A2DD986
:1002400001F0FF040F2A654688BF634644EA042490
:1002500088BF154644EA044410D9103D1C605C6018
:100260009C60DC6010330F2DF7D8103A22F00F0598
:1002700002F00F021035032A65440ED90023EC501A
:100280000433C3EB020CBCF1030FF8D8043A22F09C
:10029000030302F003020433ED18AC4632B1C9B2D5
:1002A00000230CF8031001339A42FAD130BC704796
:1002B000044B1A6B42F480521A630122A3F50063C7
:1002C0009A6070470038024000230B6010F8012B41
:1002D00012F0800F0CD002F07F029A40D1F800C0DB
:1002E00007334CEA0202232B0A60EFD1012000E021
:1002F0000020704730B585B00D2205460A49684692
:10030000FFF740FF6C46094A0DF10A03023405F07D
:100310000F01515C2D0903F8011DA342F7D1684676
:1003200000F016FB05B030BDC00C0000AC0C0000A6
:10033000F0B5002585B000F067FB4FF0C846FFF729
:10034000B7FF2C462E4F00E0022400F0E9FA10F02F
:10035000800F36D140380428F6D8DFE800F00317C4
:100360001C272B00274800F0F3FA274800F0F0FA8A
:10037000012C08BF254803D0022C14BF244825486F
:1003800000F0E6FA244800F0E3FADEE7002C0CBFA8
:1003900001240224D9E7012CD6D1204800F1040120
:1003A000006880F3088809680847CEE73868FFF7D7
:1003B000A1FFCAE70025FFF77BFF4FF0C8462C4698
:1003C000C3E7012CC0D1052395FBF3F203FB1252C6
:1003D00004A98A18013502F80C0C95FBF3F203FB13
:1003E0001253002BB1D101A803A9FFF76DFF00281C
:1003F000AAD0039B46F8043B039B3B60A5E700BFE4
:1004000000300240CD0C0000FC0C0000350D000057
:100410002E0D0000410D0000CA0C00000000006419
:1004200001480068004700000800006401480068B7
:10043000004700000C00006401480068004700000D
:1004400010000064014800680047000014000064C8
:100450000148006800470000180000640148006877
:10046000004700002C0000640148006800470000BD
:100470003000006401480068004700003800006454
:1004800001480068004700003C0000640148006823
:100490000047000040000064014800680047000079
:1004A0004400006401480068004700004800006400
:1004B00001480068004700004C00006401480068E3
:1004C0000047000050000064014800680047000039
:1004D00054000064014800680047000058000064B0
:1004E00001480068004700005C00006401480068A3
:1004F00000470000600000640148006800470000F9
:10050000640000640148006800470000680000645F
:1005100001480068004700006C0000640148006862
:1005200000470000700000640148006800470000B8
:10053000740000640148006800470000780000640F
:1005400001480068004700007C0000640148006822
:100550000047000080000064014800680047000078
:1005600084000064014800680047000088000064BF
:1005700001480068004700008C00006401480068E2
:100580000047000090000064014800680047000038
:10059000940000640148006800470000980000646F
:1005A00001480068004700009C00006401480068A2
:1005B00000470000A00000640148006800470000F8
:1005C000A40000640148006800470000A80000641F
:1005D0000148006800470000AC0000640148006862
:1005E00000470000B00000640148006800470000B8
:1005F000B40000640148006800470000B8000064CF
:100600000148006800470000BC0000640148006821
:1006100000470000C0000064014800680047000077
:10062000C40000640148006800470000C80000647E
:100630000148006800470000CC00006401480068E1
:1006400000470000D0000064014800680047000037
:10065000D40000640148006800470000D80000642E
:100660000148006800470000DC00006401480068A1
:1006700000470000E00000640148006800470000F7
:10068000E40000640148006800470000E8000064DE
:100690000148006800470000EC0000640148006861
:1006A00000470000F00000640148006800470000B7
:1006B000F40000640148006800470000F80000648E
:1006C0000148006800470000FC0000640148006821
:1006D0000047000000010064014800680047000076
:1006E000040100640148006800470000080100643C
:1006F00001480068004700000C01006401480068E0
:100700000047000010010064014800680047000035
:1007100014010064014800680047000018010064EB
:1007200001480068004700001C010064014800689F
:1007300000470000200100640148006800470000F5
:10074000240100640148006800470000280100649B
:1007500001480068004700002C010064014800685F
:1007600000470000300100640148006800470000B5
:10077000340100640148006800470000380100644B
:1007800001480068004700003C010064014800681F
:100790000047000040010064014800680047000075
:1007A00044010064014800680047000048010064FB
:1007B00001480068004700004C01006401480068DF
:1007C0000047000050010064014800680047000035
:1007D00054010064014800680047000058010064AB
:1007E00001480068004700005C010064014800689F
:1007F00000470000600100640148006800470000F5
:10080000640100640148006800470000680100645A
:1008100001480068004700006C010064014800685E
:1008200000470000700100640148006800470000B4
:10083000740100640148006800470000780100640A
:1008400001480068004700007C010064014800681E
:10085000004700008001006438B50D46044602E000
:1008600054F8043B9847AC42FAD338BD08B500F0C1
:1008700053F91248124A1349121AFFF783FC12481F
:10088000124A0021121AFFF7C5FC11481149FFF75F
:10089000E3FF11481149FFF7DFFF11491148FFF746
:1008A000DBFFFFF745FD104A104BD16801F4E06112
:1008B00041EA0303D360BFF34F8FFEE7000000203F
:1008C00000000020500D000000000020000000206B
:1008D0004C0D00004C0D00004C0D00004C0D0000B4
:1008E0004C0D00004C0D000000ED00E00400FA0586
:1008F000684620F007018D4608B5FFF7B7FF0000F6
:10090000024B1888C0F34010704700BF00480040F9
:10091000024B1888C0F3C010704700BF0048004069
:1009200008B5FFF7EDFF0028FBD0024B9888C0B256
:1009300008BD00BF0048004010B50446FFF7E8FFBF
:100940000028FBD0014B9C8010BD00BF0048004038
:1009500010B5044601E0FFF7EFFF14F8010B002883
:10096000F9D110BD024608B502480A2100F0B3F8DB
:1009700008BD00BF00080240024608B502480A212F
:1009800000F078F808BD00BF00080240024608B534
:1009900002480B2100F09FF808BD00BF000802408C
:1009A000024608B502480B2100F064F808BD00BFFC
:1009B00000080240124B10B51A6B124C42F00402B0
:1009C0001A631A6C072042F480221A644FF4005311
:1009D000A38100232382A3824FF482732381FFF734
:1009E000C1FF1020FFF7C8FF0720FFF7CFFF10203F
:1009F000FFF7D6FFA3899BB243F00C03A38110BD80
:100A00000038024000480040154A08B5136B1549EC
:100A10006FEA53236FEA432313634FF0AA33A2F51F
:100A20006052936002F58062936002F58062936089
:100A300002F5806291600C4902F5806291600B4979
:100A400002F5806291600A4902F58062916002F5C8
:100A50008062936002F580629360FFF7ABFF08BD90
:100A600000380240AFAFFFFBAFEAFFFFFFAFAAFFC6
:100A7000FFAFAEAA4B004FF0030C0CFA03FC30B5ED
:100A800004686FEA0C0C0CEA0404046001248C4036
:100A9000456825EA04044460C4680CEA040CC0F804
:100AA0000CC04FEAE20C0CFA03FC04684CEA040C9C
:100AB000C2F3800414FA01F102F0030212FA03F304
:100AC000C0F800C0D0F804C041EA0C014160C16820
:100AD0000B43C36030BD072902F00F020DD8890017
:100AE0000F238B4012FA01F1D0F820C02CEA030347
:100AF0000362036A194301620DE00839C9B2890033
:100B00000F238B408A40D0F824C02CEA03034362B1
:100B1000436A1A4342627047524B4FF0CC101A6836
:100B2000DFF844C142F001021A6000229A6019689D
:100B300082B021F0847121F4803119604B495960F1
:100B4000196821F4802119607821DA601963484915
:100B500008624848486248480860484888604848F1
:100B60004A60CA6001F5806108624FF0CC3048628B
:100B7000444808604448886044484A60CA6001F5B7
:100B800080610862C1F824C0DFF804C1C1F800C068
:100B9000DFF800C1C1F808C04A60CA6001F5806191
:100BA0000862C02048623C4808603C4888604A604F
:100BB000CA600121996341F215004FF0204188601D
:100BC0004FF48230C8606FF0704001F58271886028
:100BD000019200921A6842F480321A601A6802F494
:100BE00000320092019A01320192009A1AB9019AD8
:100BF000B2F5A06FF2D11B4B1B6813F4003318BF82
:100C000001230093009B012B26D1164B9A689A6012
:100C10009A6842F400429A609A6842F4A0529A603C
:100C20001F4A5A601A6842F080721A6019680D4AA9
:100C300011F0007FFAD01B4B40F2037119609368EA
:100C400023F003039360936843F002039360936877
:100C500003F00C03082BFAD1134B4FF000629A609B
:100C600002B07047003802400000CCCC10300024A5
:100C7000000C0240CCCC0CCC0A0AAAA20F0FFFF346
:100C8000CC0000C00A80AAAA0FC0FFFFCCCCCC00C9
:100C9000AA0A00AAFF0F00FFAA0A0800FF0F0C0013
:100CA000193C4005003C024000ED00E03031323399
:100CB0003435363738396162636465660000000098
:100CC00030782E2E2E2E2E2E2E2E0D0A004C6F61D9
:100CD0006465722076312E30383A20546572726124
:100CE0006E656F20466564657269636F2054656345
:100CF000686E6F6C6F676965730D0A00446576698D
:100D000063653A2073746D33326632303769670D2C
:100D10000A4D656D6F72793A20323034384B427922
:100D20007465730D0A5374617475733A20004964D5
:100D30006C650D0A00526563656976696E670D0A18
:0C0D4000004572726F720D0A0000000086
:04000003000008F100
:00000001FF
