:10000000000002206909000099040000A504000016
:10001000B1040000BD040000C9040000000000009D
:10002000000000000000000000000000D5040000F7
:10003000E104000000000000ED040000F9040000ED
:1000400005050000110500001D0500002905000040
:1000500035050000410500004D0500005905000070
:1000600065050000710500007D05000089050000A0
:1000700095050000A1050000AD050000B9050000D0
:10008000C5050000D1050000DD050000E905000000
:10009000F5050000010600000D060000190600002D
:1000A00025060000310600003D060000490600005C
:1000B00055060000610600006D060000790600008C
:1000C00085060000910600009D060000A9060000BC
:1000D000B5060000C1060000CD060000D9060000EC
:1000E000E5060000F1060000FD060000090700001B
:1000F00015070000210700002D0700003907000048
:1001000045070000510700005D0700006907000077
:1001100075070000810700008D07000099070000A7
:10012000A5070000B1070000BD070000C9070000D7
:10013000D5070000E1070000ED070000F907000007
:1001400005080000110800001D0800002908000033
:1001500035080000410800004D0800005908000063
:1001600065080000710800007D0800008908000093
:1001700095080000A1080000AD080000B9080000C3
:10018000C5080000844641EA000313F0030349D187
:10019000403A23D30B6803604B6843608B688360ED
:1001A000CB68C3600B6903614B6943618B698361F1
:1001B000CB69C3610B6A03624B6A43628B6A8362D9
:1001C000CB6AC3620B6B03634B6B43638B6B8363C1
:1001D000CB6BC36340304031403ADBD230320BD37B
:1001E0000B6803604B6843608B688360CB68C360B7
:1001F00010301031103AF3D20C3205D351F8043BD1
:1002000040F8043B043AF9D2043208D0D2071CBFAC
:1002100011F8013B00F8013B01D30B8803806046D5
:10022000704700BF082A13D38B07B1D010F0030327
:10023000AED0C3F10403D21ADB071CBF11F8013B97
:1002400000F8013BA4D331F8023B20F8023B9FE7C2
:10025000043AD9D3013A11F8013B00F8013BF9D235
:100260000B7803704B7843708B78837060467047CF
:10027000F0B4860746D0541E002A3CD00346CAB2CA
:1002800001E0013C37D303F8012B9D07F9D1032C82
:100290002AD9CDB245EA05250F2C45EA054534D9C2
:1002A000A4F1100222F00F0C03F120071609674495
:1002B00003F1100242E9045542E902551032BA42F4
:1002C000F8D1721C14F00C0F03EB021204F00F06AD
:1002D00013D0331F23F003030433134442F8045BA9
:1002E0009342FBD106F003042CB1CAB21C4403F8BC
:1002F000012B9C42FBD1F0BC704734461346002CC6
:10030000F3D1F8E714460346C1E71A462646E0E76C
:10031000002310B50B60013810F8012F14060AD520
:100320000C6802F07F029A4007332243232B0A60B5
:10033000F2D1012010BD0020FCE70000F0B585B02F
:100340006A46044616460F4B03F10807154618681F
:100350005968083303C5BB422A46F7D118681B7990
:1003600009492B710923286004F00F028A5C2409D3
:10037000F254013B012BF7D1304600F0E9FB05B008
:10038000F0BD00BF450C0000340C00002DE9F04327
:100390000025384F85B000F00BFB3B6B4FF0C04899
:1003A00043F480533B6301232C46334EDFF8E49043
:1003B000B36000F0B9FB03063ED44038042804D8EB
:1003C000DFE800F0051A1F2B2F000224F1E72B486D
:1003D00000F0BEFB2A4800F0BBFB012C08D0022C29
:1003E00008D0284800F0B4FB274800F0B1FBE0E754
:1003F0002648F7E72648F5E7002C0CBF0124022425
:10040000D7E7012CE1D14FF0C04000F104010068B2
:1004100080F3088809680847CBE73068FFF78EFF4C
:10042000C7E73B6B002543F480533B6301234FF048
:10043000C0482C46B360BCE7012CC6D10523B5FBF0
:10044000F3F303EB8303EB1A04AA1344013503F817
:10045000080C09FB05F3B3F1333FAAD801A902A8A0
:10046000FFF756FF0028B0D0019B48F8043B3360EB
:100470009FE700BF0038024000300240520C0000ED
:10048000810C0000B20C00004F0C0000B90C000001
:10049000C50C0000CDCCCCCC014800680047000062
:1004A0000800006001480068004700000C00006080
:1004B0000148006800470000100000600148006823
:1004C0000047000014000060014800680047000079
:1004D0001800006001480068004700002C00006020
:1004E00001480068004700003000006001480068D3
:1004F0000047000038000060014800680047000025
:100500003C000060014800680047000040000060B7
:10051000014800680047000044000060014800688E
:1005200000470000480000600148006800470000E4
:100530004C00006001480068004700005000006067
:10054000014800680047000054000060014800684E
:1005500000470000580000600148006800470000A4
:100560005C00006001480068004700006000006017
:10057000014800680047000064000060014800680E
:100580000047000068000060014800680047000064
:100590006C000060014800680047000070000060C7
:1005A00001480068004700007400006001480068CE
:1005B0000047000078000060014800680047000024
:1005C0007C00006001480068004700008000006077
:1005D000014800680047000084000060014800688E
:1005E00000470000880000600148006800470000E4
:1005F0008C00006001480068004700009000006027
:10060000014800680047000094000060014800684D
:1006100000470000980000600148006800470000A3
:100620009C0000600148006800470000A0000060D6
:100630000148006800470000A4000060014800680D
:1006400000470000A8000060014800680047000063
:10065000AC0000600148006800470000B000006086
:100660000148006800470000B400006001480068CD
:1006700000470000B8000060014800680047000023
:10068000BC0000600148006800470000C000006036
:100690000148006800470000C4000060014800688D
:1006A00000470000C80000600148006800470000E3
:1006B000CC0000600148006800470000D0000060E6
:1006C0000148006800470000D4000060014800684D
:1006D00000470000D80000600148006800470000A3
:1006E000DC0000600148006800470000E000006096
:1006F0000148006800470000E4000060014800680D
:1007000000470000E8000060014800680047000062
:10071000EC0000600148006800470000F000006045
:100720000148006800470000F400006001480068CC
:1007300000470000F8000060014800680047000022
:10074000FC000060014800680047000000010060F4
:10075000014800680047000004010060014800688B
:1007600000470000080100600148006800470000E1
:100770000C010060014800680047000010010060A3
:10078000014800680047000014010060014800684B
:1007900000470000180100600148006800470000A1
:1007A0001C01006001480068004700002001006053
:1007B000014800680047000024010060014800680B
:1007C0000047000028010060014800680047000061
:1007D0002C01006001480068004700003001006003
:1007E00001480068004700003401006001480068CB
:1007F0000047000038010060014800680047000021
:100800003C010060014800680047000040010060B2
:10081000014800680047000044010060014800688A
:1008200000470000480100600148006800470000E0
:100830004C01006001480068004700005001006062
:10084000014800680047000054010060014800684A
:1008500000470000580100600148006800470000A0
:100860005C01006001480068004700006001006012
:10087000014800680047000064010060014800680A
:100880000047000068010060014800680047000060
:100890006C010060014800680047000070010060C2
:1008A00001480068004700007401006001480068CA
:1008B0000047000078010060014800680047000020
:1008C0007C01006001480068004700008001006072
:1008D00038B504460D46AC4203D254F8043B984761
:1008E000F9E738BD08B500F03DF91248124A13493E
:1008F000121AFFF747FC1248124A0021121AFFF79A
:10090000B7FC11491148FFF7E3FF11491148FFF700
:10091000DFFF11491148FFF7DBFFFFF737FD1049F3
:10092000104BCA6802F4E0621343CB60BFF34F8FF1
:10093000FEE700BF0000002000000020D00C0000F7
:100940000000002000000020D00C0000D00C0000AF
:10095000D00C0000D00C0000D00C0000D00C000027
:1009600000ED00E00400FA05684620F007018D461E
:1009700008B5FFF7B7FF00000C4B1A6B42F00402FA
:100980001A635A6C42F010025A644FF40052A3F5F5
:1009900094339A8100221A829A8240F209221A81A3
:1009A0009A8942F00C029A81704700BF00380240D9
:1009B000DFF870C1F0B4DCF830303D4E43F07F0317
:1009C000CCF830304FF0AA333A4D3B4CB3603B4843
:1009D000AB60A3603A4B3B4983603B4B3B4A8B6027
:1009E0003B4B3C4F93603C4B9F60A7F25567376091
:1009F000A7F50927A7F572672F60384F276007F121
:100A0000204707F5DF470237076007F10067A7F5C2
:100A100021670F60324F176040F6AA271F604FF022
:100A2000C847F7602F4FEF602F4FE7602F4FC76029
:100A30004FF42A57CF602E4FD7602E4FDF6010271C
:100A4000776100276F61676147614F6157615F613F
:100A5000294F3762294F7762294E2E62294E6E62E6
:100A6000294D2562294D6562294C0462294C446256
:100A7000294808624FF0CC30486228492848116262
:100A8000506219625F620123F0BCCCF8383041F249
:100A900011024FF020431A604FF400725A60DCF8E4
:100AA000083043F48003CCF80830FFF765BF00BF7F
:100AB000000002400004024000080240000C024016
:100AC000AFEFFFFB00100240AFEAFFFF001402404F
:100AD000FFAFAAFFFFAFAAAA00180240A81AAA02F5
:100AE000AA1A00AA20A10800008000A08020000807
:100AF0000040AA0000A0AAAABBBB50B570A70A007C
:100B0000BB0050000BBBBBCCB0BBBB00CCCC0C00C3
:100B1000CC0CCCC0CCCC0CCCCC0000C0CCCCCC0011
:100B20000000CCCC00380240034B1A889206FCD55A
:100B30009888C0B2704700BF00100140034B1A886C
:100B40001206FCD580B29880704700BF00100140AB
:100B500008B5411E11F8010F10B1FFF7EFFFF9E7DB
:100B600008BD000000212E4B82B01A6842F001023D
:100B70001A6099601A6822F0847222F480321A6036
:100B8000284A5A601A6822F480221A60D9600091BB
:100B9000019119461A6842F480321A601A6802F408
:100BA00000320192009A01320092019A1AB9009A19
:100BB000B2F5A06FF2D10B6813F4003318BF012314
:100BC0000193019B012B25D1154B9A689A609A6875
:100BD00042F400429A609A6842F4A0529A60124A23
:100BE0005A601A6842F080721A601A689201FCD545
:100BF00040F203710D4A11609A6822F003029A6074
:100C00009A6842F002029A60054A936803F00C0366
:100C1000082BFAD14FF00062054B9A6002B0704782
:100C20000038024010300024193C4005003C0240CE
:100C300000ED00E030313233343536373839616217
:100C4000636465660030782E2E2E2E2E2E2E2E0DED
:100C50000A004C6F616465722076312E30383A207C
:100C600054657272616E656F204665646572696372
:100C70006F20546563686E6F6C6F676965730D0AEA
:100C8000004465766963653A2073746D3332663269
:100C900030377A670D0A4D656D6F72793A203531BC
:100CA000324B42797465730D0A5374617475733AEB
:100CB000200049646C650D0A0052656365697669B8
:100CC0006E670D0A004572726F720D0A0000000017
:040000030000096987
:00000001FF
