:10000000000001206D0700005D030000690300008F
:1000100075030000810300008D0300000000000054
:100020000000000000000000000000009903000034
:10003000A503000000000000B1030000BD030000A4
:10004000C9030000D5030000E1030000ED03000038
:10005000F903000005040000110400001D04000065
:100060002904000035040000410400004D04000094
:100070005904000065040000710400007D040000C4
:100080008904000095040000A1040000AD040000F4
:10009000B9040000C5040000D1040000DD04000024
:1000A000E9040000F5040000010500000D05000052
:1000B0001905000025050000310500003D05000080
:1000C0004905000055050000610500006D050000B0
:1000D0007905000085050000910500009D050000E0
:1000E000A9050000B5050000C1050000CD05000010
:1000F000D9050000E5050000F1050000FD05000040
:100100000906000015060000210600002D0600006B
:100110003906000045060000510600005D0600009B
:100120006906000075060000810600008D060000CB
:1001300000000000000000000000000000000000BF
:1001400000000000000000000000000000000000AF
:10015000000000000000000000000000000000009F
:10016000000000000000000000000000000000008F
:10017000000000000000000000000000000000007F
:10018000000000000000000000000000000000006F
:10019000000000000000000000000000000000005F
:1001A000000000000000000000000000000000004F
:1001B000000000000000000000000000000000003F
:1001C000000000000000000000000000000000002F
:1001D000000000000000000000000000000000001F
:1001E0005FF8E0F110B50C4B84B06C4684460FCB41
:1001F00007C40A492370EE4609230CF00F028A5CFB
:100200004FEA1C1C0EF80320013B012BF5D1684678
:1002100000F0EAFA04B010BDD0090000BC090000EB
:100220002DE9F04F41F2000783B0C4F2020700F05D
:10023000EBFA7B6943F2000643F04003C4F2020686
:100240004FF0010B002546F267697B614FF0D04803
:10025000C6F808B02C46EA46C6F2666900F0B4FA61
:1002600010F0800F07D14038042806D8DFE800F0EE
:10027000252116120700012C30D00224EEE77B69FD
:10028000002543F040037B614FF0D048C6F808B02A
:100290002C46E3E73068FFF7A5FFDFE7012CECD140
:1002A0002D4800F10401006880F3088809680847B8
:1002B000D4E7002CE1D10124D0E7214800F094FAE2
:1002C000204800F091FA012C35D0022C2FD01E4886
:1002D00000F08AFA1D4800F087FABFE789FB053273
:1002E000EB17C3EB620303EB8303EB1A02AAD318E9
:1002F000013503F8080C89FB0532EB17C3EB6202EA
:1003000002EB8202AA1AA9D1134610461AF803106A
:1003100011F0800FB1D001F07F019140013308430B
:100320000732052BF2D148F8040B306096E70848F5
:1003300000F05AFACEE7074800F056FACAE7C0467E
:10034000E0090000100A0000440A0000480A00000A
:10035000580A00004C0A00000000006801480068CC
:1003600000470000080000680148006800470000DE
:100370000C00006801480068004700001000006899
:100380000148006800470000140000680148006848
:10039000004700001800006801480068004700009E
:1003A0002C00006801480068004700003000006829
:1003B00001480068004700003800006801480068F4
:1003C000004700003C00006801480068004700004A
:1003D00040000068014800680047000044000068D1
:1003E00001480068004700004800006801480068B4
:1003F000004700004C00006801480068004700000A
:100400005000006801480068004700005400006880
:100410000148006800470000580000680148006873
:10042000004700005C0000680148006800470000C9
:100430006000006801480068004700006400006830
:100440000148006800470000680000680148006833
:10045000004700006C000068014800680047000089
:1004600070000068014800680047000074000068E0
:1004700001480068004700007800006801480068F3
:10048000004700007C000068014800680047000049
:100490008000006801480068004700008400006890
:1004A00001480068004700008800006801480068B3
:1004B000004700008C000068014800680047000009
:1004C0009000006801480068004700009400006840
:1004D0000148006800470000980000680148006873
:1004E000004700009C0000680148006800470000C9
:1004F000A00000680148006800470000A4000068F0
:100500000148006800470000A80000680148006832
:1005100000470000AC000068014800680047000088
:10052000B00000680148006800470000B40000689F
:100530000148006800470000B800006801480068F2
:1005400000470000BC000068014800680047000048
:10055000C00000680148006800470000C40000684F
:100560000148006800470000C800006801480068B2
:1005700000470000CC000068014800680047000008
:10058000D00000680148006800470000D4000068FF
:100590000148006800470000D80000680148006872
:1005A00000470000DC0000680148006800470000C8
:1005B000E00000680148006800470000E4000068AF
:1005C0000148006800470000E80000680148006832
:1005D00000470000EC000068014800680047000088
:1005E000F00000680148006800470000F40000685F
:1005F0000148006800470000F800006801480068F2
:1006000000470000FC000068014800680047000047
:10061000000100680148006800470000040100680C
:1006200001480068004700000801006801480068B0
:10063000004700000C010068014800680047000006
:1006400010010068014800680047000014010068BC
:100650000148006800470000180100680148006870
:10066000004700001C0100680148006800470000C6
:10067000200100680148006800470000240100686C
:100680000148006800470000280100680148006830
:10069000004700002C010068884270B50D4605D265
:1006A000044654F8043B9847A542FAD870BDC046AA
:1006B00000F040F9204A21498A420AD2204800230A
:1006C00050F803C042F803C0043302EB030C8C451E
:1006D000F6D31C4B1C4A934204D2002143F8041B5E
:1006E0009342FBD3194B1A4A934205D24FF0BB31C8
:1006F00043F8041B9342FBD316481749FFF7CCFF7E
:1007000016481749FFF7C8FF16491748FFF7C4FFF7
:10071000FFF786FD4EF60052CEF20002D16840F29D
:10072000040301F4E061C0F2FA5341EA0303D36029
:10073000BFF34F8FFEE7C0460000002000000020FE
:10074000600A0000000000200000002000C000201F
:1007500000000120600A0000600A0000600A00003A
:10076000600A0000600A0000600A0000684620F08D
:1007700007018D46FFF79CFF43F60002C4F2010219
:100780004FF40053938100231382938240F271232C
:10079000138140F60003C4F20103596821F0F0010F
:1007A0005960596841F0B0015960596821F470618D
:1007B0005960596841F48061596093899BB243F054
:1007C0000C0393817047C04643F60001C4F2010157
:1007D0000A8843F6000312F0200FC4F20103F7D099
:1007E0009888C0B27047C046017861B143F60002F4
:1007F000C4F20102138813F0800FFBD0918010F82F
:10080000011F0029F6D1704710B500F00DF841F234
:100810000003C4F202039A6942F4804242F00502E6
:100820009A61FFF7A9FF10BD41F20003C4F2020371
:100830001A6882B042F001021A60596840F2000260
:10084000CFF6FF0201EA02025A601A6822F08472AF
:1008500022F480321A601A6822F480221A605A68E0
:1008600022F4FE025A604FF41F029A60A2F51F02A2
:10087000019200921A6842F480321A601A6802F4F7
:1008800000320092019A01320192009A1AB9019A3B
:10089000B2F5A06FF2D141F20003C4F202031B686B
:1008A00013F4003308BF009301D001230093009B91
:1008B000012B00D0FEE742F20003C4F202031A68E3
:1008C00042F010021A601A6822F003021A601A68D5
:1008D00042F002021A6041F20003C4F202035A68B5
:1008E0005A605A685A605A6842F480625A605A687C
:1008F00022F47C125A605A6842F4E8125A601A686C
:1009000042F080721A60196841F2000211F0007F13
:10091000C4F20202F7D0536823F003035360536814
:1009200043F002035360536803F00C03082BFAD121
:1009300002B0704741F20003C4F202034FF48A721E
:100940005A614FF4F0729A6141F2004344F2BB42A3
:10095000C4F201034FF0BB31C4F2BB421A605960CC
:1009600044F2BB4241F60003C4F20103CBF244421D
:100970001A6059604BF6BB3241F6004344F24441E1
:10098000C4F20103C4F2BB42CBF6BB311A6059601A
:1009900042F20003C4F201031A6044F64432C4F286
:1009A0004B425A604FF480521A614FF0204341F29B
:1009B00011021A614FF400725A61704730313233BC
:1009C000343536373839616263646566000000008B
:1009D00030782E2E2E2E2E2E2E2E0D0A00000000E8
:1009E0004C6F616465722076312E30383A20546540
:1009F0007272616E656F20466564657269636F200F
:100A0000546563686E6F6C6F676965730D0A0000EB
:100A10004465766963653A2073746D3332663130AC
:100A2000337A650D0A4D656D6F72793A2031303237
:100A3000344B42797465730D0A5374617475733A5B
:100A40002000000049646C650D0A00005265636572
:100A50006976696E670D0A004572726F720D0A0041
:040000030000076D85
:00000001FF
